:020000040800F2
:10000000E00500209D010008BB1C00080F1B000834
:10001000B91C0008850200088125000800000000C6
:10002000000000000000000000000000DF1C0008CD
:100030003903000800000000DD1C0008E11C000876
:10004000B7010008B7010008B7010008B7010008B0
:10005000B7010008B70100083B030008410300088E
:10006000B7010008B7010008B7010008B701000890
:10007000B7010008B7010008B7010008B701000880
:1000800089020008B7010008B7010008B70100089D
:10009000B7010008B7010008B7010008B701000860
:1000A000B7010008B7010008B7010008B701000850
:1000B000E11D0008ED1D0008B7010008B7010008A8
:1000C000B7010008B7010008B7010008B701000830
:1000D000B7010008B701000875250008B70100083E
:1000E000B7010008B7010008B7010008B701000810
:1000F000B7010008B7010008B7010008B701000800
:10010000B7010008B7010008B7010008B7010008EF
:10011000B7010008B7010008B7010008B7010008DF
:10012000B7010008B7010008B7010008B7010008CF
:10013000B7010008B7010008B7010008B7010008BF
:10014000B7010008B7010008B7010008B7010008AF
:10015000B7010008B7010008B7010008B70100089F
:10016000B7010008B7010008B7010008B70100088F
:10017000B7010008B7010008B7010008000000003F
:10018000B7010008B7010008DFF80CD000F068F8EC
:1001900000480047A5250008E005002006488047E4
:1001A00006480047FEE7FEE7FEE7FEE7FEE7FEE75C
:1001B000FEE7FEE7FEE7FEE78D1D00088901000867
:1001C0002DE9F05F0546002092469B46884606468C
:1001D000814640241BE0284641464746224600F01F
:1001E0002FF853465A46C01A914110D3114618466B
:1001F000224600F016F82D1A67EB01084F462246FA
:100200000120002100F00DF817EB00094E41201EDF
:10021000A4F10104DFDC484631462A464346BDE8E6
:10022000F09F202A04DB203A00FA02F100207047F8
:100230009140C2F1200320FA03F319439040704724
:10024000202A04DB203A21FA02F00021704721FA2B
:1002500002F3D040C2F12002914008431946704792
:10026000064C074D06E0E06840F0010394E8070003
:1002700098471034AC42F6D3FFF78AFF7C2600087B
:100280009C260008FEE70000014800F06FB800005F
:100290007C01002001681823CAB2103AB2FBF3F2C5
:1002A000054B6FF30901032A9B5CC36500D9091D47
:1002B00081650846704700005C26000810B50146BD
:1002C00000208B698A6A4FF0C07453B1B3F5005FA8
:1002D00015D072B1012A0CD0022A0AD0032A09D102
:1002E00004E01AB1012A06D0022A03D1C96AC90161
:1002F00000D5012010BDC96AA142FAD010BD002A64
:10030000F7D0012AF2D0022AF3D0032AF3D010BD8D
:1003100030B50468256825F480252560046863608D
:100320008368402B036803D099600068C26030BDC9
:100330009A600068C16030BD7047012000F0EAB9E2
:10034000022000F0E7B990F83510022903D080218F
:10035000416501207047052180F83510006801686B
:1003600021F0010101600020704700002DE9F843F1
:1003700004464FF00009CDF8009063484FF4165141
:10038000A56D0068B0FBF1F72E6894F85C100820AA
:1003900000FA01F131420FD021680A6852070BD5EB
:1003A0000A6822F004020A6094F85C108840A86091
:1003B000606D40F00100606594F85C104FF001083A
:1003C00008FA01F0304208D021684969090604D5CD
:1003D000A860606D40F00200606594F85C10042035
:1003E0008840304208D021680968890704D5A86090
:1003F000606D40F00400606594F85C101020884047
:10040000304218D021680968090714D5A86020680F
:100410000168490304D50068000308D5A16C07E012
:100420000168C90503D4016821F008010160216C4D
:1004300009B12046884794F85C102020884030425B
:1004400031D021680968C9062DD5A86094F8350017
:1004500005282068016806D0490347D500680003D5
:100460001DD4616C1CE021F0160101602068416917
:1004700021F080014161206C08B9A06C20B1206896
:10048000016821F00801016094F85C103F20884069
:10049000A86084F8349084F83580216D1FE0E16B0A
:1004A00009B120468847606D00282BD0606DC007D9
:1004B00014D0052084F835002068016821F001017E
:1004C00001600098401C0090B84203D82068006882
:1004D000C007F6D184F8349084F83580E16C0029A7
:1004E00010D001B02046BDE8F04308470168C905B7
:1004F000D5D4016821F01001016084F8349084F8AB
:100500003580CCE7BDE8F8836C0000202DE9F04190
:10051000044600F0E9F906465CB1002584F8345041
:10052000022084F835002068016821F00101016093
:100530000DE00120BDE8F08100F0D6F9801B052810
:1005400005D920206065032084F83500F2E7206893
:100550000068C007F0D12268116820480140D4E942
:1005600001031843D4E9033633431843636918433E
:10057000A3691843E3691843236A18430843616A6F
:10058000042903D1D4E90B131943084310602068F0
:100590004069666A20F0070130460E4301270428AF
:1005A0000CD1A06A0643E06A40B12046FFF786FE00
:1005B00020B14020606584F83570BAE72068466154
:1005C0002046FFF767FE94F85C203F219140816050
:1005D000656584F835700020ACE700003F8010F0BE
:1005E0002DE9F0410446866D90F83400002501287D
:1005F0000DD0012084F8340094F835700020012FCC
:1006000007D084F8340002252846BDE8F081022096
:10061000FBE7022784F8357060652046FFF778FE17
:1006200094F85C103F208840B0602068016841F079
:10063000160101602068416941F080014161206C30
:1006400020B12068016841F008010160206801685C
:1006500041F001010160D7E770B52B4E054601213D
:10066000304600F03BF9294C02212071304600F061
:1006700035F92749607109684A6A2262616A511A2C
:10068000E165A378302B02D0312B16D010E0012D7C
:100690000ED150290CDD2179012909D1012801D081
:1006A00018B105E0A169491E01E0A169491CA161D9
:1006B0002179A171E071626270BD2179012901D0B7
:1006C00019B110E0A3791BB10DE0A379012B0AD178
:1006D000DBB2984202D1A3695B1C03E0884202D1DD
:1006E000A3695B1EA36101280AD00028E0D1E37949
:1006F000012BDDD1DBB29942D4D08142D5D0D7E7EE
:10070000E379002BF6D0D3E7000002400000002080
:1007100070000020044910B50A68024202D0086047
:10072000FFF79AFF10BD0000143C01402DE9F84F7F
:10073000DFF87CB100224FF001084FF0030A4FF0C0
:100740000F090BF1040E00BF0B6808FA02F42340F6
:10075000A3426ED14D68022D01D0122D0ED1D508C5
:1007600000EB850CDCF820505607F70E09FA07F667
:10077000B5430E69BE402E43CCF820600668550094
:100780000F790AFA05FC07F0030726EA0C06AF40CA
:10079000374307604E68012E05D0022E03D0112E7C
:1007A00001D0122E0ED18668CF6826EA0C06AF4023
:1007B000374387604668A6430C79C4F3001494401D
:1007C00034434460C6688C6826EA0C06AC40344367
:1007D000C4604C68E40065D5364C256845F4804516
:1007E0002560246822F0030504F480440094324C10
:1007F0002E19D6F8084895072F0F09FA07F5AC43CC
:100800002E4DA84201D1002524E02D4DA84201D152
:1008100001251FE02B4DA84201D102251AE02A4DE7
:10082000A84201D1032515E0284DA84202D1042594
:1008300010E037E0264DA84201D105250AE0254DFC
:10084000A84201D1062505E0234DA84201D1072584
:1008500000E00825BD402543C6F80858DBF80040F5
:100860005D464E689C43F60300D51C432C60DEF8C1
:10087000004075464E689C43B60300D51C432C606F
:100880000B4D08352C684E689C43F60200D51C437E
:100890002C60074D0C352C684E689C43B60200D581
:1008A0001C432C60521C102AFFF44EAFBDE8F88F99
:1008B000003C01404438024000300140000002404A
:1008C0000004024000080240000C024000100240F8
:1008D0000014024000180240001C02400069084059
:1008E00000D0012070470000014880687047000078
:1008F00060000020024881680278114481607047DE
:10090000600000200B4810B5016841F400710160DF
:10091000016841F480610160016841F48071016007
:10092000032000F097F8002000F006F800F024F80B
:10093000002010BD003C024070B50D4D04464FF440
:100940007A712878B1FBF0F00A490968B1FBF0F040
:1009500000F01BFB48B9102C07D200222146501E84
:1009600000F058F800206C6070BD012070BD0000E0
:10097000600000206C0000201F4808B5016841F4A9
:1009800080410160006800F4804000901A48001F18
:10099000016841F080510160006800F080500090D3
:1009A000032000F057F8002211466FF00B0000F012
:1009B00031F8002211466FF00A0000F02BF80022F7
:1009C00011466FF0090000F025F800221146501F73
:1009D00000F020F800221146101F00F01BF8002242
:1009E0001146901E00F016F80022BDE8084011469E
:1009F000501E00F00FB800004438024000F01F0203
:100A0000012191404009800000F1E020C0F8001170
:100A100070470000F0B40E4B1B680C46C3F3022372
:100A2000C3F10705042D00D90425191D072901D29A
:100A3000002300E0DB1E012606FA05F1491E2140D5
:100A400099409E40761E16403143F0BC01F036B905
:100A50000CED00E0064900F0070208684FF6FF03BE
:100A6000184040EA0220034A104308607047000023
:100A70000CED00E00000FA052DE9F0470E460500F8
:100A800065D0DFF81481D8F80000F7B200F00F004D
:100A9000B04207D288F80070D8F8000000F00F00CC
:100AA000B04254D128683D4C810712D5400703D588
:100AB000206840F4E05020602878000703D52068C3
:100AC00040F4604020602068A96820F0F0000843EE
:100AD00020602878C0072DD030496868083901287F
:100AE00012D0022813D0032811D0096889070029E1
:100AF0002DDA216821F0030101432160FFF7F4FEA4
:100B0000814641F2883A0EE009688903EFE70968F7
:100B10008901ECE7FFF7E8FEA0EB0901514502D996
:100B20000320BDE8F0872068696800F00C00B0EB96
:100B3000810FEFD1D8F80010404601F00F01B1420B
:100B400007D90770006800F00F00B04201D0012003
:100B5000E7E72878400705D52068E96820F4E050E9
:100B6000084320602878000706D52068296920F40A
:100B7000604040EAC100206000F03CF82168084A6B
:100B8000C1F30311515CC840064908600020FFF71B
:100B9000D3FE0020C5E70000003C024008380240B8
:100BA000642600086C0000200148006870470000BF
:100BB0006C0000200448054900680968044AC1F334
:100BC0008221515CC84070476C0000200838024008
:100BD000742600080448054900680968044AC1F3FE
:100BE0004231515CC84070476C0000200838024018
:100BF00074260008154810B5006810F00C0214485F
:100C000013D04110042A0FD0082A0ED10F4C241FF4
:100C10002268236802F03F025B0207D52068C0F318
:100C20008810A0FB010106E0084610BD2168C1F351
:100C30008811A1FB00010023FFF7C2FA2168C1F36C
:100C40000141491C4900B0FBF1F010BD08380240D9
:100C50000024F4002DE9F84F050076D02878DFF85D
:100C6000F8B2BE4CC00749D0DBF800105846C1F3BB
:100C70008101012908D00068C0F3810002280AD14F
:100C8000201D0068400206D52068800336D56868BC
:100C90000028E2D032E06868B0F5803F10D0B0F5AF
:100CA000A02F206810D020F480302060206820F42D
:100CB000802020606868A0B1FFF716FE06460CE0B1
:100CC000206840F48030F4E740F480202060F7E7AB
:100CD000FFF70AFE801B642873D820688003F7D5CD
:100CE0000CE0FFF701FE064605E000BFFFF7FCFD44
:100CF000801B6428F0D820688003F7D42878DFF8B8
:100D0000608280074FF000093ED5DBF8001058469E
:100D100011F00C0F09D00068C0F3810002280BD13C
:100D20008D48001F0068400206D42068800715D552
:100D3000E868012809D111E0E868B8B10120C8F8D5
:100D40000000FFF7D1FD064605E002E1FFF7CCFD0C
:100D5000801B0228C0D820688007F7D52068296941
:100D600020F0F80040EAC10020600DE0C8F80090D3
:100D7000FFF7BAFD064604E0FFF7B6FD801B022828
:100D80001FD820688007F7D42878000722D5724E34
:100D9000744869696C3671B101210160FFF7A4FDE7
:100DA000074604E0FFF7A0FDC01B022809D8306801
:100DB0008007F7D50EE0C0F80090FFF795FD0746D5
:100DC00005E083E0FFF790FDC01B02287ED8306865
:100DD0008007F7D42878400768D5DFF87CA1002782
:100DE0000AF1380ADAF80000C0000BD4DAF8001073
:100DF00041F08051CAF80010DAF80000012700F035
:100E000080500090584E3068C00510D4306840F4CF
:100E100080703060FFF768FD009005E0FFF764FD2B
:100E20000099401A022851D83068C005F6D54A4EBC
:100E3000A868683601280FD00528306810D020F047
:100E400001003060306820F004003060A868B8B15C
:100E5000FFF74AFD00900FE0306840F00100F4E732
:100E600040F004003060F7E7FFF73EFD0099411ABB
:100E700041F28830814264D830688007F4D50EE0B2
:100E8000FFF732FD009007E0FFF72EFD0099411AB1
:100E900041F28830814254D830688007F4D42FB1B1
:100EA000DAF8001021F08051CAF80010A869C0B328
:100EB000DBF80010C1F3810102294AD0022848461C
:100EC00007D0C8F86000FFF70FFD00E039E00546E5
:100ED0003AE04746C8F86000FFF706FD064604E022
:100EE000FFF702FD801B02282BD820688001F7D471
:100EF000D5E907010843A96A1C4A490802EB0141E8
:100F00006A6A41EA8211084395F82C1040EA0161AF
:100F10001148001F016001203866FFF7E5FC054617
:100F200005E014E0FFF7E0FC401B022809D8206828
:100F30008001F7D50BE000BFFFF7D6FC401B02286D
:100F400002D90320BDE8F88F20688001F4D4002086
:100F5000F8E70120F6E700000838024000380240B8
:100F600000004742800E4742007000400000FFFF33
:100F70004FF0E0210428086903D020F00400086144
:100F8000704740F00400FAE7704710B5401EB0F11A
:100F9000807F01D3012010BD4FF0E02460610F215C
:100FA000601700F08BFE0020A06107202061002068
:100FB00010BD10B5FFF7E8FF10BD7047704730B5A2
:100FC00090F83820012A20D0012280F8382002230E
:100FD00080F8393003685C6824F070045C60036852
:100FE0005C680D682C435C6003689C6824F0800496
:100FF0009C6003689C6849680C439C6080F83920B9
:10100000002180F83810084630BD022030BD10B5F0
:10101000040003D094F8390010B107E0012010BD9E
:10102000002084F83800204600F00CF8022084F8F4
:101030003900211D206800F0DFFE012084F839000E
:10104000002010BD08B501681948B1F1804F14D0D7
:10105000184A914220D1016841F002010160006804
:10106000002200F00200009011461D20FFF7D2FC84
:101070001D20BDE80840FFF7C1BC016841F0010137
:1010800001600068002200F00100009011461C2061
:10109000FFF7C0FC1C20ECE7074A914207D101682A
:1010A00041F004010160006800F00400009008BDF8
:1010B0004038024000040040000800400168CA684F
:1010C00042F00102CA600068016841F0010101605C
:1010D0000020704770B5044690F83800012817D0FA
:1010E000012584F83850022084F83900206882688D
:1010F00022F0770222F47F4282600868502837D0BD
:101100000DDC202859D005DC88B3102841D151E0EE
:10111000022070BD302853D040283AD13FE06028EB
:101120002ED070280BD0B0F5805F03D0B0F5005FF3
:101130002FD110E02068816821F0070115E0CB680D
:10114000D1E90121206800F0C2FE2168886840F0E2
:10115000770088601DE0CB68D1E90121206800F0AC
:10116000B6FE2068816841F48041816011E01EE094
:10117000CA684968206800F073FF5021206806E0C3
:10118000CA684968206800F07CFF6021206800F090
:10119000A8FE84F83950002084F8380070BDCA6871
:1011A0004968206800F05CFF40212068EFE70021DB
:1011B0002068ECE710212068E9E720212068E6E7B5
:1011C00030212068E3E7704770B504460068016984
:1011D0004FF00005C943890715D4C168C943890781
:1011E00011D4E91E01610120207620688069800702
:1011F000204602D0FFF7E7FF04E000F0B3F82046F6
:1012000000F035F9257620680169C943490717D4EC
:10121000C168C943490713D46FF00401016102207A
:1012200020762068806910F4407F204602D0FFF7C6
:10123000CAFF04E000F096F8204600F018F9257681
:1012400020680169C943090716D4C168C943090761
:1012500012D46FF008010161042020762068C06973
:101260008007204602D0FFF7AEFF04E000F07AF8D6
:10127000204600F0FCF8257620680169C943C906BC
:1012800017D4C168C943C90613D46FF010010161B6
:10129000082020762068C06910F4407F204602D0E4
:1012A000FFF791FF04E000F05DF8204600F0DFF862
:1012B000257620680169C943C90708D1C168C943B7
:1012C000C90704D1891E0161204600F0EDF82068AD
:1012D0000169C943090609D4C168C943090605D48F
:1012E0006FF0800101612046FFF767FE2068016909
:1012F000C943490609D4C168C943490605D46FF0FA
:1013000040010161204600F0EFF920680169C943FE
:1013100089060BD4C168C943890607D46FF0200140
:1013200001612046BDE87040FFF748BE70BD000077
:1013300000B50068094985B088420CD14FF440508F
:10134000009002200021CDE90101CDE9031069469A
:101350000348FFF7EBF905B000BD000000080040AE
:10136000000C0240704770B5044690F838000D46F6
:1013700001280DD0012684F83860022084F8390055
:1013800042B1042A18D0082A2AD00C2A4DD139E0BB
:10139000022070BD206800F0ADFD2068816941F039
:1013A000080181612068816921F004018161206860
:1013B00081692A69114311E0206800F0C7FD2068A7
:1013C000816941F4006181612068816921F4806153
:1013D0008161206881692A6941EA0221816124E0F2
:1013E000206800F0E5FD2068C16941F00801C16195
:1013F0002068C16921F00401C1612068C1692A69BE
:10140000114311E0206800F003FE2068C16941F437
:101410000061C1612068C16921F48061C1612068F7
:10142000C1692A6941EA0221C16184F8396000205A
:1014300084F8380070BD10B5040003D094F839006A
:1014400010B107E0012010BD002084F838002046CC
:1014500000F00CF8022084F83900211D206800F00B
:10146000CBFC012084F83900002010BD7047704784
:1014700010B504460068012200F01EFD08492068EE
:10148000884202D00749884203D1416C41F40041AF
:1014900041642068016841F001010160002010BD35
:1014A00000000140000401402DE9F0418849006836
:1014B000096888427ED1874C874D6069A84211D067
:1014C0008349A069C331020E8A70020C0A71020AB4
:1014D0008A7108723020887214230D22A1F14B000A
:1014E00000F0B7FAA069A062A178302902D03129B2
:1014F0001ED045E0B4F90C1090FBF1F212B26281FB
:10150000884204DC4E42B04201DB024602E002FBAC
:101510001102A2624FF4B4735A4392FBF1F2A26239
:10152000E2694FF49663821A5A4392FBF1F121E08B
:10153000B4F90C108A0090FBF2F31BB26381B0EB9C
:10154000810F05DC4F42B0EB870F01DB014604E061
:1015500013FB01F3A0EB8301A1624FF4B473594371
:1015600091FBF2F1A162E1694FF49663411A59438C
:1015700091FBF2F100EE101AB8EEC00A84ED130AE6
:10158000D4ED0C1A5249C4ED0D1AD4ED0B0A534E8A
:10159000C4ED0C0A94ED0E0A002384ED0F0A94EDBD
:1015A000051A3C3111EE102AB24205D011EE102A74
:1015B000AA4200E08AE00ED10A68936309684B638F
:1015C0009FED470A84ED0C0A84ED0D0A84ED0E0AA6
:1015D00084ED0F0A79E02278F6EE002AB0EE002AB8
:1015E000302A02D0312A1DD040E094ED0A3AB8EEFC
:1015F000C33A31EE431A84ED0B1A31EE603AD4ED62
:10160000103A03EE830AD4ED113A94ED043A63EEF6
:10161000833A63EEA22A71EE203A02EEA30AD4EDD9
:10162000122A19E094ED133A31EE431A84ED0B1AA5
:1016300031EE603AD4ED143A03EE830AD4ED153A54
:1016400094ED043A63EE833A63EEA22A71EE203AF7
:1016500002EEA30AD4ED162A00EEC21A62EE832A25
:1016600071EE210A02EEA00A84ED0E0AD4ED0E0AF4
:10167000B2EE081A80EE810ADFED1A0A20EE200A87
:10168000BDEEC00A10EE102A12B22281002A0DDD32
:101690000F3212B22281FF2A01DDFF2222810A6865
:1016A00053630968B4F908208A630EE00F3A12B256
:1016B0006FF0FE052281AA4200DA25810A68936351
:1016C000B4F90820096852424A63E061BDE8F0813C
:1016D000AC0000200000002000007A440000C84355
:1016E0000000000000007F437047704770B502683B
:1016F00004461068D168536910F00F0F50D003F002
:10170000010501F4907635435DD0C20705D0CA05C6
:1017100003D5E26B42F00102E263420705D5DA0726
:1017200003D0E26B42F00202E263820705D5DA07DA
:1017300003D0E26B42F00402E263020705D5DA0748
:1017400003D0E26B42F00802E263E26B002A33D07E
:10175000800604D5880602D5204600F00BFD2068DF
:101760004069E16BC0F38010090700D428B320461C
:1017700000F0E9FC2068416949061AD5416921F069
:1017800040014161606BA0B11B490165606BFEF7D0
:10179000DAFD002810D0606B016DBDE8704008478D
:1017A000830610D58B060ED52046BDE8704000F0AC
:1017B000E1BC2046FFF799FF70BD2046FFF795FF7B
:1017C0000020E06370BD030606D50B0604D5204655
:1017D000BDE8704000F06ABE4006F3D54806F1D57A
:1017E000D168204621F04001D160202184F83910D1
:1017F00000F08CF970BD0000A720000870B504004F
:1018000004D094F83900002510B106E0012070BD25
:1018100084F83850204600F023F8242084F839005A
:101820002068C16821F40051C160204600F0E8FC46
:101830002068016921F4904101612068416921F02B
:101840002A0141612068C16841F40051C160E5632B
:10185000202084F8390084F83A00002070BD000090
:1018600070B506460068204986B0884239D11F48C5
:101870000025016841F4003101600068694600F408
:10188000003005900C200090022001900120029071
:1018900003200390072004901548FEF747FF164CDD
:1018A000144820604FF00060C4E901054014C4E909
:1018B000035080106561C4E90650256220466562C8
:1018C000FEF724FE18B1EE210CA000F05AFE74635E
:1018D000002211462620A663FFF79CF82620FFF77A
:1018E0008DF806B070BD0000004400404038024052
:1018F00000000240886002407C0100202E2E2F5301
:1019000072632F73746D3332663478785F68616CFC
:101910005F6D73702E630000F8B5044690F83A00CE
:1019200020283CD1C1B3BAB394F83800012836D08E
:10193000012084F83800A162A2850025E5632220F9
:1019400084F83A00636B1748D863636B16481864D1
:10195000636B1648D864606B134605650846666B72
:10196000216802463046091DFEF73AFE20680168EC
:101970004168009184F83850C16841F48071C160B9
:101980002068416941F0010141612068416941F0ED
:10199000400141610020F8BDFFE70120FBE7022084
:1019A000F9E70000012100083D210008B7200008E8
:1019B00070B5244900680968884242D1214D4035FC
:1019C000287831283DD1A87A39283AD11E4C0220F6
:1019D00005F10B01608100BFB4F90A002A5C0A54CA
:1019E000801C00B260810928F6DB3220887215491C
:1019F00014230D224B31134800F02BF8287AA979D3
:101A000000EB012000EE100AB8EE400A84ED050A52
:101A1000A97821702879A070E278904202D0002243
:101A2000A261E2616278914209D09FED080A84EDDB
:101A30000C0A84ED0D0A84ED0E0A84ED0F0AE070A5
:101A4000617070BD24010020000000200000000033
:101A500070472DE9F843044690F839001F461646B2
:101A60000D46202850D1A5B19EB194F83800012828
:101A70004AD0012084F838004FF00008C4F83C80B8
:101A8000212084F83900FEF72FFFA6848146E684E2
:101A900026E00120BDE8F883E08C401EE084A068C9
:101AA0004B46B0F5805F4FF000024FF080012046BA
:101AB000009703D000F02BFDE8B90DE000F027FD02
:101AC000C8B928882168C0F308004860206908B1B7
:101AD0006D1C05E0AD1C03E0216815F8010B4860A2
:101AE000E08C0028D8D14B460022402120460097A8
:101AF00000F00DFD08B10320CCE7202084F8390068
:101B000084F838800020C5E70220C3E77047FEE76D
:101B10001B4800B5026887B0002142F080020260D5
:101B2000026802F080020592026842F0010202603F
:101B3000026802F001020592026842F008020260A7
:101B4000006800F008000590032000900D48CDE9E2
:101B5000010169460C48FEF7E9FD00221146062006
:101B6000FEF758FF0620FEF749FF00221146072026
:101B7000FEF750FF0720FEF741FF07B000BD000051
:101B800030380240000031100000024010B5124809
:101B900086B04FF08041016054210024C0E9011457
:101BA000611EC0E90314FFF732FA00B1FEE74FF4FB
:101BB0008050009069460848FFF78CFA00B1FEE7B4
:101BC000049404A904480594FFF7F9F9002800D00B
:101BD000FEE706B010BD00007000002010B51348ED
:101BE00086B0114901604AF210410024C0E9011495
:101BF0006321C0E90314FFF70AFA00B1FEE74FF4CE
:101C00008050009069460948FFF764FA00B1FEE78A
:101C1000049404A905480594FFF7D1F9002800D0E1
:101C2000FEE706B010BD000000040040AC0000203C
:101C300010B520488EB01E4901604FF42871002471
:101C4000C0E90114FF21C0E90314FFF7E0F900B176
:101C5000FEE74FF48050079007A91648FFF73AFABD
:101C600000B1FEE71348FFF7E6FB00B1FEE70B9477
:101C70000BA910480C94FFF7A2F900B1FEE7602011
:101C8000CDE900040294002269460A480494FFF753
:101C90006AFB00B1FEE7042269460648FFF763FBD2
:101CA00000B1FEE70348FFF743FB0EB010BD000094
:101CB00000080040E8000020FEE770470907090E11
:101CC000002806DA00F00F0000F1E02080F8141D73
:101CD000704700F1E02080F80014704770477047AB
:101CE00010B5FEF707FEBDE81040FFF762B900002F
:101CF00030B5244893B00025016841F0805101605F
:101D0000006800F0805011901F48016841F4804144
:101D100001600068022400F48040119001200090CE
:101D2000000401908001CDE90640082008904FF49E
:101D3000A870CDE9090404200B906846FEF78AFFDD
:101D400000B1FEE70CA90F2081E831004FF4A0504C
:101D50000F90109005210CA8FEF78EFE00B1FEE753
:101D6000FEF722FF4FF47A71B0FBF1F0FFF70DF9A7
:101D70000420FFF7FDF800221146501EFEF74AFE30
:101D800013B030BD40380240007000401048016878
:101D900041F4700101600F48016841F001010160E8
:101DA0000C4A00210832116002680B4B1A40026095
:101DB000031D0A4A1A60026822F480220260054864
:101DC0000C300160024958068039086070470000F5
:101DD00088ED00E000380240FFFFF6FE10300024DE
:101DE0000148FFF7F1B90000700000200148FFF73B
:101DF000EBB90000AC000020F0B50268234B244D85
:101E0000244E254F254C4FF0804C984209D0604518
:101E100007D0A84205D0B04203D0B84201D0A042BA
:101E200004D122F0700E4A6842EA0E0298421BD09A
:101E3000604519D0A84217D0B04215D0B84213D08F
:101E4000A04211D0164DA8420ED0164DA8420BD07C
:101E5000154DA84208D0154DA84205D0144DA842F2
:101E600002D0144DA84203D122F44075CA682A4317
:101E700002608A68C2620A688262984201D0A04207
:101E800001D10969016301214161F0BD00000140F8
:101E90000004004000080040000C00400004014025
:101EA000004001400044014000480140001800404B
:101EB000001C00400020004010B50123046A8B4044
:101EC0009C430462036A8A401343036210BD10B549
:101ED000846842EA032224F47F440A432243826056
:101EE00010BD826822F070020A4342F0070181604F
:101EF0007047000030B5026A22F001020262026AF5
:101F0000436884690D6824F07304254322F00204B9
:101F10008A6822430B4CA04202D00B4CA0420BD14A
:101F200022F00804CA6823F4407322434C6922F06B
:101F300004021C438B692343436085614968416304
:101F4000026230BD000001400004014030B5026A69
:101F500022F010020262026A436884690D6824F468
:101F6000E64444EA05248D6822F0200242EA051284
:101F70000D4DA84202D00D4DA8420ED1CD6822F0E1
:101F8000800242EA05124D6923F4406343EA850367
:101F90008D6922F0400243EA850343608461496809
:101FA0008163026230BD0000000001400004014076
:101FB00030B5026A22F480720262036A4268C46920
:101FC00023F4007324F073050C682C438D6843EAF6
:101FD00005230D4DA84202D00C4DA8420ED1CD686C
:101FE00023F4006343EA05234D6922F4405242EA98
:101FF00005128D6923F4806342EA05124260C461D0
:102000004968C163036230BD000001400004014023
:1020100030B5026A22F480520262046A4268C369DF
:102020000D6823F4E64343EA05238D6824F4005445
:1020300044EA0534084DA84202D0084DA84204D114
:102040004D6922F4804242EA85124260C3614968C8
:102050000164046230BD0000000001400004014042
:1020600010B5036A046A24F001040462846924F050
:10207000F00444EA021423F00A020A438461026273
:1020800010BD10B5036A23F0100303628369046A6C
:1020900023F4704343EA023224F0A00343EA01111F
:1020A0008261016210BD10B5806B0021C185C184C1
:1020B000FFF71BFB10BD70B5846B2068406994F876
:1020C0003910C0F3C0100025212904D118B1E584CE
:1020D000204600F046F82068406994F83A10C0F3B2
:1020E0008010222904D118B1E585204600F02BF894
:1020F000E06B40F01000E0632046FFF7F6FA70BD99
:1021000010B50146806B09680968C90513D4002120
:10211000C1850168CA6822F48072CA6001684A6990
:1021200022F001024A6101684A6922F040024A61D4
:10213000202180F83A10FFF73BFC10BD10B5806BF2
:10214000FFF786FC10BD0168CA6822F49072CA606D
:1021500001684A6922F001024A61202180F83A10A0
:1021600070470168CA6822F0C002CA60202180F866
:102170003910704710B590F83A10222901D002208A
:1021800010BD8168B1F5805F11D001690029016837
:102190001FD0496801F07F03816A4A1C82620B707C
:1021A000C18D491E0904090CC18518D026E00269B9
:1021B000816A002A0268526805D0D2B20A80816A18
:1021C000491C8162ECE7C2F308020A80816A891C1B
:1021D000F7E74A68816A4B1C83620A70E0E701688E
:1021E000CA6822F49072CA6001684A6922F001024A
:1021F0004A61202180F83A10FFF7DAFB002010BD79
:102200002DE9F04104460068016921F44052E1687B
:10221000114301612168C86849F20C629043236947
:10222000A268E5691A4363692B431A430243CA60F3
:102230002168486920F44072A06910434861E1694F
:102240006425B1F5004F9748974A21684FF032084E
:102250003FD0914201D081427CD1FEF7BBFC00EB24
:10226000C00101EB001061688900B0FBF1F6FEF7D8
:10227000B1FC00EBC00101EB001061688900B0FB0C
:10228000F1F0B0FBF5F06FF01801484306EB800168
:1022900008EB0110B0FBF5F000F0F006FEF79AFC39
:1022A00000EBC00101EB001061688900B0FBF1F0A8
:1022B000B0FBF5F006EB0016FEF78CFC00EBC0015E
:1022C00001EB001061688900B0FBF1F7FEF782FCBA
:1022D000D2E0914201D081423DD1FEF77BFC00EB80
:1022E000C00101EB001061684900B0FBF1F0B0FBE8
:1022F000F5F00601FEF76EFC00EBC00101EB0010EB
:1023000061684900B0FBF1F7FEF764FC00EBC00127
:1023100001EB001061684900B0FBF1F0B0FBF5F093
:102320006FF01801484307EB800108EBC100B0FBD8
:10233000F5F000F0F80006EB4006FEF74BFC00EB72
:10234000C00101EB001061684900B0FBF1F7FEF736
:1023500041FC3CE055E0FEF72DFC00EBC00101EB39
:10236000001061684900B0FBF1F0B0FBF5F0060128
:10237000FEF720FC00EBC00101EB00106168490092
:10238000B0FBF1F7FEF716FC00EBC00101EB00100B
:1023900061684900B0FBF1F0B0FBF5F06FF0180197
:1023A000484307EB800108EBC100B0FBF5F000F0FB
:1023B000F80006EB4006FEF7FDFB00EBC00101EB69
:1023C000001061684900B0FBF1F7FEF7F3FB00EB8A
:1023D000C00101EB001061684900B0FBF1F0B0FBF7
:1023E000F5F06FF01801484307EB800108EBC100DE
:1023F000B0FBF5F000F00700216830448860BDE8CC
:10240000F081FEF7D7FB00EBC00101EB0010616823
:102410008900B0FBF1F6FEF7CDFB00EBC00101EB4C
:10242000001061688900B0FBF1F0B0FBF5F06FF0CF
:102430001801484306EB800108EB0110B0FBF5F0F2
:1024400000F0F006FEF7B6FB00EBC00101EB001058
:1024500061688900B0FBF1F0B0FBF5F006EB001607
:10246000FEF7A8FB00EBC00101EB001061688900DA
:10247000B0FBF1F7FEF79EFB00EBC00101EB001093
:1024800061688900B0FBF1F0B0FBF5F06FF0180166
:10249000484307EB800108EB0110B0FBF5F000F0BA
:1024A0000F00A9E7001401400010014090F8391016
:1024B000212901D0022070478168B1F5805F016A4F
:1024C0000BD04A1C0262026809785160C18C491E17
:1024D0000904090CC1840ED017E009880268C1F311
:1024E0000801516001690029016A02D0491C01629A
:1024F000ECE7891CFBE70168CA6822F08002CA6029
:102500000068C16841F04001C160002070472DE9BA
:10251000F041984617460E460446069D1DE0681C8D
:102520001BD02DB1FEF7E0F9A0EB0800A84214D9AA
:102530002068C16821F4D071C1602068416921F030
:1025400001014161202084F8390084F83A0000201C
:1025500084F838000320BDE8F0812068006836EA7E
:10256000000004D00020B842D9D00020F3E70120B9
:10257000F9E700000148FFF7B9B800002401002086
:10258000FEE7FEE702E008C8121F08C1002AFAD1E0
:1025900070477047002001E001C1121F002AFBD1E3
:1025A0007047000008B5FEF7ADF9FFF7A1FBFFF794
:1025B000AFFA27480024016841F400110160006867
:1025C000224600F40010009021461020FEF722FA67
:1025D0001020FEF713FA20481E4901604FF47A31AB
:1025E000C0E901140C21C460C0E904418461C461E4
:1025F000FFF704F900B1FEE7FFF7C8FAFFF7EEFABC
:10260000FFF716FB144800213C38FEF731FF124853
:1026100004213C38FEF72CFF0F487838FEF74EFDBA
:102620000D48B438FEF74AFD0B490B2240310A48E9
:10263000FFF772F9084831214B3001702C214170AD
:10264000C1704171C1714172C17239210173FEE7DC
:1026500030380240004400402401002000061016DB
:102660000006101600000000000000000102030434
:102670000607080900000000010203049C26000868
:102680000000002070000000842500080C270008CE
:102690007000002070050000942500083000300014
:1026A0000000000000000000B8010000CDCC4C3D4F
:1026B00000007A440000000000000000000000005C
:1026C000000000000000000000000000000000000A
:1026D0000000000000000000000000005839B43C79
:1026E000ACC527370000003F000000008FC2753DD9
:1026F000EC51383E17B7D13800000000010000004F
:0C27000010000000000000000024F400A5
:040000050800018965
:00000001FF
